:030000000208D023
:0C08D000787FE4F6D8FD75810B0208F07B
:10089800E4FDFCC3ED9FEE6480F8EC64809850158D
:1008A800E4FBFA0BBB00010ABA07F8BB23F50DBD40
:0508B80000010C80DED0
:0108BD002218
:0808BE00E5829DFFE5839CFE2D
:0A08C600EF1F70011E144E70F722A0
:10080000900190E4FDFC308B01227F647E00120891
:10081000987C007D01C3ED9582EC95835018E4F53A
:10082000A0AF05AE041208C675A0FFC31208BE0D26
:10083000BD00010C80DF7590FFE58224FFFDE5839C
:1008400034FFFCD3ED9400EC940040BAE4F5A0AF83
:1008500005AE041208C675A0FF1208BEED1D70E3B8
:030860001C80E019
:0908E70020890575A0FF80F822AC
:0B08DC00D2AFD2A8C289D2AAC28B22E0
:030003000208638D
:10086300C0E0C083C082C0D075D000C000C002C049
:1008730003C004C005C006C007C289120800D00720
:10088300D006D005D004D003D002D000D0D0D0827F
:05089300D083D0E0322B
:030013000208F8E8
:0608F800C28B1208E7327A
:0808F000E4F5A01208DC80FE13
:00000001FF
